S01400004C61626F7261746F72696F322E7372656360
S11300000C9454000C9469000C9469000C946900DD
S11300100C9469000C9469000C9469000C946900B8
S11300200C9469000C9469000C9469000C946900A8
S11300300C9469000C9469000C9469000C94690098
S11300400C9469000C9469000C9469000C94690088
S11300500C9469000C9469000C9469000C94690078
S11300600C9469000C946900001F000000001F003C
S1130070001F101010101F00001F181818181F0060
S1130080001F1C1C1C1C1F00001F1E1E1E1E1F0008
S1130090001F1F1F1F1F1F0003070F1F0F07030051
S11300A0181C1E1F1E1C180011241FBECFEFD8E001
S11300B0DEBFCDBF11E0A0E0B1E0E0E5F6E002C0B4
S11300C005900D92AA32B107D9F70E94E0020C9470
S11300D026030C94000065B1982F9074492F50E0CA
S11300E055954795559547955595479555954795F4
S11300F0982F9078292F30E0022E232F000C221FF6
S1130100330B000C221F331F962F997F492B242B6E
S113011025B968B1982F9071492F50E055954795AE
S11301205595479555954795982F9072292F30E00E
S1130130359527953595279535952795962F997F4C
S1130140492B242B28B99BB192609BB99BB1916038
S11301509BB925ED2A95F1F700009BB19E7F9BB9D1
S11301609BB19D7F9BB995ED9A95F1F7000065B120
S113017020E1829FC0011124AC014074552755959C
S113018047955595479555954795559547959C01A0
S113019020783327022E232F000C221F330B000C50
S11301A0221F331F362F397F432B242B25B948B107
S11301B09C012071332735952795359527953595DD
S11301C02795807299279595879595958795959507
S11301D08795942F997F292B822B88B98BB18260C4
S11301E08BB98BB181608BB985ED8A95F1F70000ED
S11301F08BB18E7F8BB98BB18D7F8BB995ED9A9531
S1130200F1F70000089565B1982F9074492F50E0DC
S113021055954795559547955595479555954795C2
S1130220982F9078292F30E0022E232F000C221FC4
S1130230330B000C221F331F962F997F492B242B3D
S113024025B968B1982F9071492F50E0559547957D
S11302505595479555954795982F9072292F30E0DD
S1130260359527953595279535952795962F997F1B
S1130270492B242B28B99BB191609BB9EFE9FFE08E
S11302803197F1F700C000009BB19E7F9BB9EFE965
S1130290FFE03197F1F700C0000065B1F0E18F9FF6
S11302A0C0011124AC0140745527559547955595C7
S11302B0479555954795559547959C012078332743
S11302C0022E232F000C221F330B000C221F331F7E
S11302D0362F397F432B242B25B948B19C0120713B
S11302E0332735952795359527953595279580722C
S11302F09927959587959595879595958795942FA5
S1130300997F292B822B88B98BB181608BB98FE9B6
S11303109FE00197F1F700C000008BB18E7F8BB98D
S1130320EFE9FFE03197F1F700C00000089581E0A4
S11303300E94030108950F931F93CF93DF930097B7
S113034069F0D62F8C01C0E007C0F801EC0FF11D55
S113035080810E946B00CF5FCD17B8F3DF91CF91FE
S11303601F910F910895623031F0633031F06130A4
S113037029F4805C03C08C5E01C08C5A80680E94A2
S113038003010895EF92FF920F931F93CF93DF938E
S11303907C01862F90E0880F991F880F991F880F82
S11303A0991F8064C0E0D0E00DC0F701EC0FFD1F81
S11303B0149101E0080F0E940301812F0E946B0039
S11303C02196802FC830D10580F3DF91CF911F9102
S11303D00F91FF90EF900895CF93DF938FE59AEEFE
S11303E00197F1F700C0000085B1897F85B988B114
S11303F0897F88B91BB887B1866087B984B1866064
S113040084B984B1866084B987B1866087B98AB1BA
S113041083608AB985B1897F85B988B1866088B9D6
S11304208BB181608BB98FE99FE00197F1F700C030
S113043000008BB18E7F8BB98FE99FE00197F1F7B4
S113044000C0000085B1897F85B988B1866088B90C
S11304508BB181608BB98FE99FE00197F1F700C000
S113046000008BB18E7F8BB98FE99FE00197F1F784
S113047000C0000085B1897F85B988B1897F846017
S113048088B98BB181608BB98FE99FE00197F1F74F
S113049000C000008BB18E7F8BB98FE99FE001977C
S11304A0F1F700C0000088E20E9403018CE00E9482
S11304B0030160E0C0E00AC0D1E0D60F8C2F90E0C9
S11304C088599F4F0E94C201C85F6D2FC034A0F3AA
S11304D0DF91CF91089584B1867E84B98AB18F77F4
S11304E08AB985B1896185B98BB180688BB98AB1C4
S11304F08C638AB98BB1837C8BB90895DC0160E08D
S113050080E05AC09AB1462F50E0FA01EF5EFE4FE8
S113051021E030E0008002C0220F331F0A94E2F78A
S1130520922B9AB99BB1209529232BB990E02FC027
S1130530933078F473B1E92FF0E0EB5EFE4F21E0E5
S113054030E0008002C0220F331F0A94E2F7272311
S11305500EC079B1E92FF0E0EB5EFE4F21E030E010
S1130560008002C0220F331F0A94E2F727232111CF
S11305700DC0E92FF0E0EE0FFF1FEE0FFF1FE75E47
S1130580FE4FE40FF51F80818C9381E09F5F9430D0
S113059078F29BB1FA01EF5EFE4F21E030E000807B
S11305A002C0220F331F0A94E2F7922B9BB99AB12F
S11305B0209529232AB96F5F643008F4A3CF0895E6
S11305C0CF93DF931F92CDB7DEB70E94EC010E9458
S11305D06B028FE99FE00197F1F700C000000E94D1
S11305E097018FE99FE00197F1F700C0000060E0F8
S11305F080E00E94B30160E180E091E00E949B01F1
S11306009FEF20E782E0915020408040E1F700C056
S11306100000CE0101960E947E02182F14C061E0F2
S113062088E00E94B30189810E946B008FE39CE9FA
S11306300197F1F700C0000080E191E08983CE01C9
S113064001960E947E021111EACFDACFF894FFCF0F
S11306502020202020204344594D202020202020E9
S113066000030504020403000731323341343536F4
S10D06704237383943302A2344008E
S9030000FC
