:100000000C9434000C945C000C943E000C943E0064
:100010000C943E000C943E000C943E000C943E0068
:100020000C943E000C943E000C943E000C943E0058
:100030000C943E000C943E000C944A000C943E003C
:100040000C943E000C943E000C943E000C943E0038
:100050000C943E000C943E000C943E000C943E0028
:100060000C943E000C943E0011241FBECFEFD8E04C
:10007000DEBFCDBF0E947D000C949A000C9400005E
:10008000569A87E287BD82E484BD82E085BD809375
:100090006E0008951F920F920FB60F9211248F9346
:1000A0009F9395B180E2892785B99F918F910F9099
:1000B0000FBE0F901F9018951F920F920FB60F92C0
:1000C00011248F939F9398B188E0892788B98FE393
:1000D0009CE90197F1F700C000009F918F910F906C
:1000E0000FBE0F901F90189552985A9AE9E6F0E0CB
:1000F000808182608083E89A08953B9A519A259A7C
:100100000E9474000E9440007894599A2FEF80E773
:1001100092E0215080409040E1F700C000005998E3
:100120002FEF80E792E0215080409040E1F700C03F
:080130000000EBCFF894FFCFB3
:00000001FF
