:100000000C945A000C9477000C9477000C947700B1
:100010000C9477000C9477000C9477000C94770084
:100020000C9477000C9477000C9477000C94770074
:100030000C9477000C9477000C9445070C9477008F
:100040000C9477000C9477000C9477000C94770054
:100050000C9477000C9477000C9477000C94770044
:100060000C9477000C9477006364696E6F707375FD
:1000700078585B00001F000000001F00001F1010D8
:1000800010101F00001F181818181F00001F1C1C3C
:100090001C1C1F00001F1E1E1E1E1F00001F1F1FF6
:1000A0001F1F1F0003070F1F0F070300181C1E1F31
:1000B0001E1C180011241FBECFEFD8E0DEBFCDBF3D
:1000C00012E0A0E0B1E0E8E2FBE102C005900D9291
:1000D000A432B107D9F722E0A4E2B2E001C01D9238
:1000E000A833B207E1F70E942F030C94920D0C94F1
:1000F0000000BC0120E030E080E00DC0FB01E20F19
:10010000F31F4081F901E050FF4F9081491301C076
:100110008F5F2F5F3F4F2430310584F3843011F41B
:1001200081E0089580E0089561E080E00E94770218
:1001300060E188E191E00E945F02089584B1867ECB
:1001400084B98AB18F778AB985B1896185B98BB154
:1001500080688BB98AB18C638AB98BB1837C8BB987
:100160000895DC0160E080E076C09AB1462F50E04F
:10017000FA01E75DFE4F21E030E0008002C0220F6F
:10018000331F0A94E2F7922B9AB99BB12095292349
:100190002BB990E04AC0933078F473B1E92FF0E0C6
:1001A000E35DFE4F21E030E0008002C0220F331FEC
:1001B0000A94E2F727230EC079B1E92FF0E0E35D5E
:1001C000FE4F21E030E0008002C0220F331F0A946E
:1001D000E2F72723211112C0E92FF0E0EE0FFF1FF5
:1001E000EE0FFF1FEF5CFE4FE40FF51F30817091A3
:1001F0000401371719F03093040116C02223A1F02F
:10020000E92FF0E0EE0FFF1FEE0FFF1FEF5CFE4F38
:10021000E40FF51F308120910401321305C02C93A7
:100220008FEF8093040181E09F5F943008F4B3CF97
:100230009BB1FA01E75DFE4F21E030E0008002C093
:10024000220F331F0A94E2F7922B9BB99AB12095A3
:1002500029232AB96F5F643008F487CF089565B108
:10026000982F9074492F50E055954795559547958F
:100270005595479555954795982F9078292F30E0BB
:10028000022E232F000C221F330B000C221F331FC2
:10029000962F997F492B242B25B968B1982F9071FF
:1002A000492F50E055954795559547955595479554
:1002B000982F9072292F30E0359527953595279501
:1002C00035952795962F997F492B242B28B99BB1DB
:1002D00092609BB99BB191609BB925ED2A95F1F78E
:1002E00000009BB19E7F9BB99BB19D7F9BB995ED13
:1002F0009A95F1F7000065B120E1829FC0011124B9
:10030000AC0140745527559547955595479555959A
:100310004795559547959C0120783327022E232F2A
:10032000000C221F330B000C221F331F362F397F86
:10033000432B242B25B948B19C01207133273595D7
:100340002795359527953595279580729927959509
:1003500087959595879595958795942F997F292BC6
:10036000822B88B98BB182608BB98BB181608BB9DC
:1003700085ED8A95F1F700008BB18E7F8BB98BB13B
:100380008D7F8BB995ED9A95F1F70000089565B1D1
:10039000982F9074492F50E055954795559547955E
:1003A0005595479555954795982F9078292F30E08A
:1003B000022E232F000C221F330B000C221F331F91
:1003C000962F997F492B242B25B968B1982F9071CE
:1003D000492F50E055954795559547955595479523
:1003E000982F9072292F30E03595279535952795D0
:1003F00035952795962F997F492B242B28B99BB1AA
:1004000091609BB9EFE9FFE03197F1F700C0000080
:100410009BB19E7F9BB9EFE9FFE03197F1F700C0F8
:10042000000065B1F0E18F9FC0011124AC01407460
:100430005527559547955595479555954795559504
:1004400047959C0120783327022E232F000C221F72
:10045000330B000C221F331F362F397F432B242BE5
:1004600025B948B19C0120713327359527953595DD
:100470002795359527958072992795958795959518
:10048000879595958795942F997F292B822B88B9ED
:100490008BB181608BB98FE99FE00197F1F700C0C4
:1004A00000008BB18E7F8BB9EFE9FFE03197F1F758
:1004B00000C00000089581E00E94C70108950F93D5
:1004C0001F93CF93DF93009769F0D62F8C01C0E084
:1004D00007C0F801EC0FF11D80810E942F01CF5F52
:1004E000CD17B8F3DF91CF911F910F91089562302E
:1004F00031F0633031F0613029F4805C03C08C5EF0
:1005000001C08C5A80680E94C7010895EF92FF9243
:100510000F931F93CF93DF937C01862F90E0880F7A
:10052000991F880F991F880F991F8064C0E0D0E041
:100530000DC0F701EC0FFD1F149101E0080F0E94A0
:10054000C701812F0E942F012196802FC830D1052D
:1005500080F3DF91CF911F910F91FF90EF9008955D
:10056000CF93DF938FE59AEE0197F1F700C000007B
:1005700085B1897F85B988B1897F88B91BB887B172
:10058000866087B984B1866084B984B1866084B995
:1005900087B1866087B98AB183608AB985B1897F5E
:1005A00085B988B1866088B98BB181608BB98FE9D4
:1005B0009FE00197F1F700C000008BB18E7F8BB9EF
:1005C0008FE99FE00197F1F700C0000085B1897FB6
:1005D00085B988B1866088B98BB181608BB98FE9A4
:1005E0009FE00197F1F700C000008BB18E7F8BB9BF
:1005F0008FE99FE00197F1F700C0000085B1897F86
:1006000085B988B1897F846088B98BB181608BB9E5
:100610008FE99FE00197F1F700C000008BB18E7F5A
:100620008BB98FE99FE00197F1F700C0000088E2E5
:100630000E94C7018CE00E94C70160E0C0E00AC0D0
:10064000D1E0D60F8C2F90E08C589F4F0E948602ED
:10065000C85F6D2FC034A0F3DF91CF9108950E9441
:10066000B0020E949E000E9468040E943A030E9409
:100670002C07FDCF81E080932C028FEF80932B021B
:100680000E945B02089581E080932C028FEF80939B
:100690002B0280E00E94B7040895CF93C82F809169
:1006A0002B02811110C010922A020E94940061E076
:1006B00084E00E94770267E081E491E00E945F029B
:1006C0008C2F0E94B70489E292E00E94B100882337
:1006D000F9F0809129028A3050F4609124020E943E
:1006E000BA04809124028F5F8093240211C0EC2F02
:1006F000F0E0EC5EFE4F9081891306C08C2F0E94C3
:10070000CA040E94430304C0833211F40E944303CD
:1007100080912402823010F01092240280912B02EA
:10072000883C11F40E944303CF91089580912B02DD
:100730008F5F80932B0290912C02923009F4A1C01C
:1007400028F4992361F0913031F10895943009F43F
:10075000B7C008F4B1C0953009F4B6C0089581114E
:100760000EC010922A020E94940061E084E00E9470
:10077000770267E089E491E00E945F0208958E317C
:1007800009F0A5C00E94940081E080932C028FEFB5
:1007900080932B02089581110BC00E94940061E0A8
:1007A00084E00E94770267E081E491E00E945F02AA
:1007B00080912B028F3F19F481E080932B0280916E
:1007C0002A02843091F485E292E00E94790081301F
:1007D00031F410922C028FEF80932B0206C082E03E
:1007E00080932C028FEF80932B0289E292E00E948B
:1007F000B100882309F46BC080912902813469F02B
:1008000030F4833209F463C08A32E1F4089583340A
:1008100091F050F08434B1F4089583E080932C0279
:100820008FEF80932B02089584E080932C028FEF4A
:1008300080932B02089585E080932C028FEF8093A4
:100840002B0208950E94940061E086E00E947702E6
:1008500080912A0290E0880F991F880F991F64E009
:100860008B5F9E4F0E945F0280912A02E82FF0E08A
:10087000EB5DFD4F9091290290838F5F80932A0258
:10088000089581110EC010922A020E94940061E026
:1008900084E00E94770268E081E591E00E945F02B7
:1008A00008958431A1F40E94940081E080932C0289
:1008B0008FEF80932B02089581E00E944D030895ED
:1008C00082E00E944D03089583E00E944D03089545
:1008D00085B5856085BD84B5826084BD8BE987BDA3
:1008E000EEE6F0E0808182608083789484E392E099
:1008F0009F938F9383E392E09F938F9382E392E0A1
:100900009F938F938AE591E09F938F9389E691E07F
:100910009F938F930E949607109231028DB79EB7D6
:100920000A960FB6F8949EBF0FBE8DBF08958091B2
:1009300034028F5F809334028C3338F0109234028B
:10094000809133028F5F80933302809133028C3326
:1009500038F010923302809132028F5F809332021E
:1009600080913202883110F0109232020895809303
:1009700031020895611103C0809337020895909168
:100980003702990F292F220F220F920F890F809380
:1009900037020895823059F0833081F08130A1F41C
:1009A00080913702883184F48093320208958091D7
:1009B00037028C334CF480933302089580913702D0
:1009C0008C3314F4809334020895CF93DF93CDB722
:1009D000DEB728970FB6F894DEBF0FBECDBF60E03C
:1009E00084E00E94770280913102813039F138F041
:1009F000823009F4CEC0833009F476C11FC28091E1
:100A000034021F928F93809133021F928F938091B3
:100A100032021F928F9382E791E09F938F93CE01D2
:100A200001969F938F930E9474078FEF80933702F4
:100A30000FB6F894DEBF0FBECDBF00C230913702B3
:100A400021E03F3F09F020E0822F90E0409130020A
:100A5000642F70E086239723892BC1F080913402A4
:100A60001F928F93809133021F928F9381E891E0C0
:100A70009F938F93CE0101969F938F930E9474074B
:100A80000FB6F894DEBF0FBECDBFD8C191E04111C3
:100A900090E02923C1F0809134021F928F938091BE
:100AA00033021F928F938EE891E09F938F93CE0134
:100AB00001969F938F930E9474070FB6F894DEBF40
:100AC0000FBECDBFBBC181E039300CF080E0482FB4
:100AD00050E064237523672BF1F0809134021F925C
:100AE0008F93809133021F928F93832F032E000CDC
:100AF000990B9F933F938BE991E09F938F93CE0146
:100B000001969F938F930E9474070FB6F894DEBFEF
:100B10000FBECDBF93C18923F1F0809134021F92A3
:100B20008F93809133021F928F93832F032E000C9B
:100B3000990B9F933F9389EA91E09F938F93CE0106
:100B400001969F938F930E9474070FB6F894DEBFAF
:100B50000FBECDBF73C1809134021F928F938091DD
:100B600033021F928F93832F032E000C990B9F93B8
:100B70003F9382E791E09F938F93CE0101969F93DD
:100B80008F930E9474070FB6F894DEBF0FBECDBFDF
:100B900055C13091370221E03F3F09F020E0822F1C
:100BA00090E040913002642F70E086239723892BD8
:100BB000C1F0809134021F928F93809132021F9274
:100BC0008F9387EB91E09F938F93CE0101969F9334
:100BD0008F930E9474070FB6F894DEBF0FBECDBF8F
:100BE0002DC191E0411190E02923C1F080913402A0
:100BF0001F928F93809132021F928F9384EC91E029
:100C00009F938F93CE0101969F938F930E947407B9
:100C10000FB6F894DEBF0FBECDBF10C181E03930F2
:100C20000CF080E0482F50E064237523672BF1F02F
:100C3000809134021F928F93832F032E000C990B07
:100C40009F933F93809132021F928F9381ED91E0A9
:100C50009F938F93CE0101969F938F930E94740769
:100C60000FB6F894DEBF0FBECDBFE8C08923F1F008
:100C7000809134021F928F93832F032E000C990BC7
:100C80009F933F93809132021F928F938FED91E05B
:100C90009F938F93CE0101969F938F930E94740729
:100CA0000FB6F894DEBF0FBECDBFC8C0809134022E
:100CB0001F928F93832F032E000C990B9F933F93CA
:100CC000809132021F928F9382E791E09F938F93DE
:100CD000CE0101969F938F930E9474070FB6F894EC
:100CE000DEBF0FBECDBFAAC03091370221E03F3F2B
:100CF00009F020E0822F90E040913002642F70E0F4
:100D000086239723892BC1F0809133021F928F9302
:100D1000809132021F928F938DEE91E09F938F937B
:100D2000CE0101969F938F930E9474070FB6F8949B
:100D3000DEBF0FBECDBF82C091E0411190E02923FC
:100D4000C1F0809133021F928F93809132021F92E3
:100D50008F938AEF91E09F938F93CE0101969F939B
:100D60008F930E9474070FB6F894DEBF0FBECDBFFD
:100D700065C081E039300CF080E0482F50E06423FA
:100D80007523672BF1F0832F032E000C990B9F9393
:100D90003F93809133021F928F93809132021F9272
:100DA0008F9387E092E09F938F93CE0101969F935C
:100DB0008F930E9474070FB6F894DEBF0FBECDBFAD
:100DC0003DC08923F1F0832F032E000C990B9F93D4
:100DD0003F93809133021F928F93809132021F9232
:100DE0008F9385E192E09F938F93CE0101969F931D
:100DF0008F930E9474070FB6F894DEBF0FBECDBF6D
:100E00001DC0832F032E000C990B9F933F9380915D
:100E100033021F928F93809132021F928F9382E749
:100E200091E09F938F93CE0101969F938F930E94A1
:100E300074070FB6F894DEBF0FBECDBF68E0CE01D9
:100E400001960E945F0228960FB6F894DEBF0FBE8F
:100E5000CDBFDF91CF91089580912F02882321F09B
:100E600010922F020E94960380912E02882321F077
:100E700010922E020E94E50480912D02882321F019
:100E800010922D020E94970408951F920F920FB6A0
:100E90000F9211248F939F93809136028F5F8093DE
:100EA00036028A3029F481E080932F0210923602B4
:100EB000809135028F5F80933502823671F481E034
:100EC00090913002911180E08093300281E0809314
:100ED0002E0280932D02109235029F918F910F90D8
:100EE0000FBE0F901F901895AEE0B0E0EAE7F7E074
:100EF0000C94690D0D891E8986E08C831A83098301
:100F00008FEF9FE79E838D83AE01475E5F4F6F89B2
:100F1000788DCE0101960E94AF07EF81F885E00F32
:100F2000F11F10822E96E4E00C94850DAEE0B0E047
:100F3000ECE9F7E00C946B0D85E08C838B899C8940
:100F40009A838983AE01495E5F4F6D897E89CE01A8
:100F500001960E942C0B2E96E2E00C94870DABE0DC
:100F6000B0E0E5EBF7E00C945B0D6C017B018A01CE
:100F7000FC0117821682838181FFCCC1CE010196CC
:100F80003C01F6019381F70193FD859193FF8191D7
:100F90007F01882309F4BAC1853239F493FD859124
:100FA00093FF81917F01853229F4B60190E00E9480
:100FB000A50CE7CF912C212C312CFFE1F315D8F0B3
:100FC0008B3279F038F4803279F08332A1F4232D1A
:100FD00020611DC08D3261F0803369F4232D2160C2
:100FE00016C0832D8260382EE32DE4603E2E2AC089
:100FF000F32DF8601DC037FC2DC020ED280F2A30DE
:1010000040F08E32B9F436FC81C1232D2064322E9B
:1010100019C036FE06C08AE0989E200D1124922E3B
:1010200011C0EAE02E9E200D1124222EF32DF06235
:101030003F2E08C08C3621F4832D8068382E02C0E4
:10104000883641F4F70193FD859193FF81917F01EB
:101050008111B3CF982F9F7D9554933028F40C5F66
:101060001F4F9FE399830DC0833631F0833771F0B2
:10107000833509F059C021C0F801808189830E5F52
:101080001F4F88248394912C530113C02801F2E050
:101090004F0E511CF801A080B18036FE03C0692DAF
:1010A00070E002C06FEF7FEFC5010E945C0C4C0145
:1010B0008201F32DFF773F2E16C0280122E0420E59
:1010C000511CF801A080B18036FE03C0692D70E08C
:1010D00002C06FEF7FEFC5010E94510C4C01F32D50
:1010E000F0683F2E820133FC1BC0822D90E08816F1
:1010F0009906B0F4B60180E290E00E94A50C2A9413
:10110000F4CFF50137FC859137FE81915F01B6017F
:1011100090E00E94A50C21102A9421E0821A9108E7
:101120008114910471F7E8C0843611F0893641F5D5
:10113000F80137FE07C060817181828193810C5F65
:101140001F4F08C060817181072E000C880B990B1E
:101150000E5F1F4FF32DFF763F2E97FF09C090952E
:101160008095709561957F4F8F4F9F4FF0683F2E10
:101170002AE030E0A3010E94FA0C882E861845C0B0
:10118000853731F4232D2F7EB22E2AE030E025C0A2
:10119000932D997FB92E8F36C1F018F4883579F0E8
:1011A000B5C0803719F0883721F0B0C0E92FE06171
:1011B000BE2EB4FE0DC0FB2DF460BF2E09C034FE60
:1011C0000AC0292F2660B22E06C028E030E005C0F4
:1011D00020E130E002C020E132E0F801B7FE07C0B4
:1011E00060817181828193810C5F1F4F06C0608195
:1011F000718180E090E00E5F1F4FA3010E94FA0C06
:10120000882E8618FB2DFF773F2E36FE0DC0232D2E
:101210002E7FA22E891458F434FE0BC032FC09C074
:10122000832D8E7EA82E05C0B82CA32C03C0B82C0D
:1012300001C0B92CA4FE0FC0FE01E80DF11D808194
:10124000803321F49A2D997EA92E09C0A2FE06C0F2
:10125000B394B39404C08A2D867809F0B394A3FCA8
:1012600011C0A0FE06C0B21488F4280C922C9B1862
:101270000EC0B21460F4B60180E290E00E94A50CAA
:10128000B394F7CFB21418F42B1802C0982C212C69
:10129000A4FE10C0B60180E390E00E94A50CA2FE5F
:1012A00017C0A1FC03C088E790E002C088E590E089
:1012B000B6010CC08A2D867859F0A1FE02C08BE2DF
:1012C00001C080E2A7FC8DE2B60190E00E94A50C6F
:1012D000891438F4B60180E390E00E94A50C9A943A
:1012E000F7CF8A94F301E80DF11D8081B60190E0FB
:1012F0000E94A50C8110F5CF222009F442CEB60140
:1013000080E290E00E94A50C2A94F6CFF601868137
:10131000978102C08FEF9FEF2B96E2E10C94770D3F
:1013200020FD09C0FC0123FD05C022FF02C073831C
:10133000628351834083089544FD17C046FD17C062
:10134000AB01BC01DA01FB01AA0FBB1FEE1FFF1F9F
:101350001094D1F74A0F5B1F6E1F7F1FCB01BA019C
:10136000660F771F881F991F09C033E001C034E062
:10137000660F771F881F991F3150D1F7620F711DBB
:10138000811D911D08950F931F93CF93DF938C01BF
:10139000C8010E94670CEC0197FD08C00E943D0C3B
:1013A000892BB1F7B801CE010E94E10CCE01DF918B
:1013B000CF911F910F9108958F929F92AF92BF92FC
:1013C000EF92FF920F931F93CF93DF938C01D62F51
:1013D0007A01B22E0E94670C9C0133272B32310513
:1013E00031F02D32310561F48B2D8068B82ED1504B
:1013F00011F480E068C0C8010E94670C97FDF9CF26
:10140000CB2DCD7F2B2D207309F58033F9F4AA2441
:10141000AA94AD0E09F443C0C8010E94670C97FD61
:101420003EC09C012F7D33272835310549F4C26425
:10143000D250A9F1C8010E94670C97FF07C02FC0C6
:10144000B6FE02C0C26001C0C261DA2D812C912CAF
:10145000540120ED280F283080F0C4FF04C0B801EB
:101460000E94E10C19C02A3040F0C6FFF8CF2F7D52
:101470003FEE320F363098F727504C2FC501B4019C
:101480000E949C094B015C01C260D15059F0C80117
:101490000E94670C97FFDDCFC1FD04C0AACF812C4D
:1014A000912C5401C7FF08C0B094A09490948094EC
:1014B000811C911CA11CB11C2C2FB501A401C701DA
:1014C0000E94900981E0DF91CF911F910F91FF90D1
:1014D000EF90BF90AF909F908F900895A0E2B0E002
:1014E000E4E7FAE00C945E0D5C01962E7A01F901B6
:1014F0008E010F5F1F4F680180E2D8011D928A950F
:10150000E9F7D50113968C9080E090E0612C712C66
:1015100030E061E070E083FC259183FE21918F0132
:10152000522E211103C080E090E092C02E3511F4BC
:10153000009751F1432F50E0481759073CF42D35DF
:1015400059F12D3219F4772009F103C0772009F4FD
:101550006AC0452D469546954695D601A40FB11D06
:10156000452D47708B0102C0000F111F4A95E2F70D
:10157000A8015C91452B4C93651459F0561410F456
:101580005394E7CF5A94E5CF31E004C077247394A5
:1015900001C0712C0196BFCF772019F08E81806237
:1015A0008E83311103C08824839417C0F6019E01F5
:1015B0002F5D3F4F8081809581932E173F07D1F794
:1015C000F2CFE114F10429F0D7018C93F7013196A1
:1015D0007F019A94812C9920F9F0C5010E94670C33
:1015E00097FD18C0FC01FF2723E0F595E7952A95A4
:1015F000E1F7EC0DFD1D208130E0AC01477055276F
:1016000002C0359527954A95E2F720FDDACFB5015E
:101610000E94E10C811087CFE114F10411F0D70191
:101620001C92C80115C0422F469546954695D60195
:10163000A40FB11D422F47708B0102C0000F111F74
:101640004A95E2F7A8015C91452B4C93622EA2CFFC
:10165000A096EFE00C947A0DA0E0B0E0E2E3FBE0AE
:101660000C945E0D6C01EB015A01FC01178216828D
:10167000512CF601E380FE01E3FC8591E3FE8191AC
:10168000182FEF01882309F4EEC090E00E943D0C72
:10169000892B21F0C6010E94C309EBCF153241F41A
:1016A000FE01E3FC1591E3FE1191EF01153281F487
:1016B000C6010E94670C97FDD4C0412F50E09C01E9
:1016C000332724173507A9F2B6010E94E10CCBC0DD
:1016D0001A3239F4E3FC1591E3FE1191EF0101E0B8
:1016E00001C000E0F12C20ED210F2A3080F40260CF
:1016F0006F2D70E080E090E040E20E949C09F62EA1
:10170000FE01E3FC1591E3FE1191EF01ECCF01FF27
:1017100003C0F11003C0A7C0FF24FA94183619F0D3
:101720001C3651F010C0FE01E3FC1591E3FE11914F
:10173000EF01183641F408600460FE01E3FC1591E6
:10174000E3FE1191EF01112309F48DC0612F70E0C8
:1017500088E690E00E94460C892B09F484C000FDC5
:1017600007C0F50180809180C50102965C0102C02E
:10177000812C912C1E3651F4F6014681578160E090
:1017800070E0202FC4010E94900973CF1336A9F492
:1017900001FD02C0FF24F394C6010E94670C97FD6F
:1017A00060C08114910429F0F4018083C401019682
:1017B0004C01FA94F110F0CF50C01B3559F49E0142
:1017C000A4016F2DC6010E946E0AEC01892B09F05D
:1017D00044C03EC0C6010E94C30997FD42C01F36E7
:1017E00061F128F4143639F1193651F128C0133754
:1017F00071F0153701F123C08114910429F0F4012F
:101800006082C40101964C01FA94FF2071F0C60178
:101810000E94670C3C0197FD08C00E943D0C892B7B
:1018200059F3B601C3010E94E10C81149104A9F09F
:10183000F401108212C0006203C0006101C00064A4
:10184000202FA4016F2DC6010E94DC09811105C063
:10185000F6018381807329F406C000FD0ACF5394FA
:1018600008CF552019F0852D90E002C08FEF9FEF33
:10187000CDB7DEB7EFE00C947A0D91110C94580DB2
:10188000803219F089508550C8F70895FC01059001
:10189000061621F00020D9F7C00108953197CF0135
:1018A0000895FC010590615070400110D8F78095B3
:1018B00090958E0F9F1F0895FC016150704001901C
:1018C0000110D8F7809590958E0F9F1F0895CF93A4
:1018D000DF93EC012B8120FF33C026FF0AC02F7B52
:1018E0002B838E819F8101969F838E838A8190E0D6
:1018F00029C022FF0FC0E881F9818081082E000CE9
:10190000990B009719F420622B831AC03196F98342
:10191000E8830EC0EA85FB85099597FF09C02B81F6
:10192000019611F080E201C080E1822B8B8308C018
:101930002E813F812F5F3F4F3F832E83992702C027
:101940008FEF9FEFDF91CF9108950F931F93CF9368
:10195000DF93FB01238121FD03C08FEF9FEF2CC09C
:1019600022FF16C0468157812481358142175307D3
:1019700044F4A081B1819D012F5F3F4F31832083CB
:101980008C93268137812F5F3F4F3783268314C086
:101990008B01EC01FB010084F185E02D0995892B79
:1019A000E1F6D80116968D919C911797019617969E
:1019B0009C938E931697CE01DF91CF911F910F913B
:1019C0000895FB01238120FF12C026FD10C08F3F28
:1019D0003FEF930761F082832F7D2064238326816C
:1019E00037812150310937832683992708958FEF56
:1019F0009FEF0895FA01AA27283051F1203181F193
:101A0000E8946F936E7F6E5F7F4F8F4F9F4FAF4F06
:101A1000B1E03ED0B4E03CD0670F781F891F9A1F19
:101A2000A11D680F791F8A1F911DA11D6A0F711DCD
:101A3000811D911DA11D20D009F468943F912AE0D9
:101A4000269F11243019305D3193DEF6CF010895C1
:101A5000462F4770405D4193B3E00FD0C9F7F6CFF2
:101A6000462F4F70405D4A3318F0495D31FD4052BA
:101A7000419302D0A9F7EACFB4E0A6959795879550
:101A800077956795BA95C9F700976105710508952F
:101A90009B01AC010A2E06945795479537952795DB
:101AA000BA95C9F7620F731F841F951FA01D089573
:101AB0009927882708952F923F924F925F926F92B5
:101AC0007F928F929F92AF92BF92CF92DF92EF92CE
:101AD000FF920F931F93CF93DF93CDB7DEB7CA1B4F
:101AE000DB0B0FB6F894DEBF0FBECDBF09942A887A
:101AF000398848885F846E847D848C849B84AA8422
:101B0000B984C884DF80EE80FD800C811B81AA81AE
:101B1000B981CE0FD11D0FB6F894DEBF0FBECDBF79
:081B2000ED010895F894FFCFD8
:101B280005090103FF2A2020202A2A20202A2A2A00
:101B3800202A2A2A2A41424320202020202020200F
:101B48002020202020202020000305040204030078
:101B5800070102034104050642070809432A002336
:101B6800444345525241444F004142494552544F23
:101B78000044454E454741444F00256868753A255D
:101B88006868753A256868750031353A32353A35EE
:101B98003800253032643A253032643A25303264D0
:101BA80000205F3A253032643A2530326400202024
:101BB8003A253032643A25303264005F25643A258C
:101BC8003032643A25303264002025643A253032B8
:101BD800643A2530326400253032643A205F3A2571
:101BE80030326400253032643A20203A253032649D
:101BF80000253032643A5F25643A25303264002586
:101C08003032643A2025643A253032640025303277
:101C1800643A253032643A205F00253032643A2530
:101C28003032643A202000253032643A253032645C
:101C38003A5F256400253032643A253032643A2010
:041C4800256400000F
:00000001FF
